:020000040800F2
:1000000060060020790100088101000883010008D2
:100010008501000887010008890100080000000030
:100020000000000000000000000000008B0100083C
:100030008D010008000000008F01000891010008F8
:100040009301000893010008930100089301000840
:100050009301000893010008930100089301000830
:100060009301000893010008930100089301000820
:100070009301000893010008930100089301000810
:100080009301000893010008930100089301000800
:1000900093010008930100089301000893010008F0
:1000A00093010008930100089301000893010008E0
:1000B00093010008930100089301000893010008D0
:1000C00093010008930100089301000893010008C0
:1000D00093010008930100089301000893010008B0
:1000E00093010008930100089301000800F002F852
:1000F00000F030F80AA090E8000C82448344AAF192
:100100000107DA4501D100F025F8AFF2090EBAE88F
:100110000F0013F0010F18BFFB1A43F0010318473B
:10012000180B0000280B00000023002400250026E7
:10013000103A28BF78C1FBD8520728BF30C148BF4A
:100140000B6070471FB50FBC00F014F80FB41FBD53
:1001500010B510BD00F033F81146FFF7F3FF00F0C3
:1001600003FD00F051F803B4FFF7F2FF03BC00F009
:1001700059F8000000F06DB8094880470948004769
:10018000FEE7FEE7FEE7FEE7FEE7FEE7FEE7FEE747
:10019000FEE7FEE704480549054A064B70470000A4
:1001A000C50A0008ED00000860000020600600207D
:1001B000600200206002002070477047704775465B
:1001C00000F02CF8AE4605006946534620F00700C3
:1001D000854618B020B5FFF7DDFFBDE820404FF0A1
:1001E00000064FF000074FF000084FF0000BAC4640
:1001F000ACE8C009ACE8C009ACE8C009ACE8C0098B
:1002000021F007018D46704710B50446AFF300801A
:100210002046BDE81040FFF7A6BF00000048704729
:100220000000002001491820ABBEFEE726000200B6
:100230000246C91C21F00301D2E900031B1A8B42BC
:1002400001D2002070470144C91D21F0070111604F
:1002500070472DE9F34F83B000274FF48074BA46FE
:1002600003A821468DF80070FFF7E2FF5FEA00085F
:1002700001D100F083F82146404600F070F80600F6
:1002800009D04FF0010B4546C14616F8014B8FB11E
:100290005C2C16D01CE008F108004146C8F80000AC
:1002A0000020C8F80400D8F800402070012005B0F4
:1002B000BDE8F08F222C01D0272C0FD12746BA465B
:1002C0002CE03078222807D05C2805D0272803D0DE
:1002D000BC4203D1002721E0761C04464CB12FB963
:1002E000202C06D0A4F10900042802D905F8014BFE
:1002F000CBE74D4502D1BAF1000F0FD05246494627
:10030000002005F8010B6846AFF300809DF800005F
:1003100070B14D464FF0000A0BF1010B002CB4D127
:100320004FEA8B0103A8FFF783FF040002D004E02B
:10033000A946EFE7002000F021F800204246C4F86B
:10034000008005E012F8011B11B9401C44F8202080
:10035000AA42F7D3002144F820102146A7E71CB594
:100360000446CDE9000169461520ABBE08B1002066
:100370001CBD20461CBD70477047704710B500F08B
:1003800009F8BDE81040AFF30080002801D0FFF766
:1003900049BF704710B5012805D0002103A000F027
:1003A00021F8012010BD09A1F8E700005349475288
:1003B000544D454D3A204F7574206F662068656135
:1003C00070206D656D6F7279000000003A204865FD
:1003D0006170206D656D6F727920636F72727570D8
:1003E0007465640070B505460C460A2000E06D1C7B
:1003F00000F011F835B128780028F8D102E0641C2B
:1004000000F009F814B120780028F8D1BDE8704058
:100410000A20AFF3008008B569468DF8000003207C
:10042000ABBE08BD80B586B001468DF81700002030
:100430000490FFE704989DF81710884233DAFFE72D
:1004400003200021039100F02DF90420039900F00E
:1004500029F90520039900F025F900F093FB002805
:1004600001D0FFE71FE041F28830029000F05EFB10
:1004700003200121019100F015F90420019900F0F9
:1004800011F90520019900F00DF9029800F04EFBDA
:1004900000F078FB002801D0FFE704E0FFE70498B4
:1004A00001300490C6E706B080BD000080B584B07E
:1004B00001468DF80F0005208DF80E0040F2034034
:1004C000ADF80C0000200290FFE702989DF80F1095
:1004D00088423DDAFFE700200190FFE701980228FB
:1004E00015DCFFE7019803A9085C002100F0DAF8A9
:1004F00000F048FB002801D0FFE729E041F28830F6
:1005000000F014FBFFE7019801300190E6E70020BE
:100510000090FFE70098022815DCFFE7009803A988
:10052000085C012100F0BEF800F02CFB002801D08F
:10053000FFE70DE041F2883000F0F8FAFFE700989D
:1005400001300090E6E7FFE7029801300290BCE737
:1005500004B080BD80B582B003200021019100F07D
:10056000A1F80420019900F09DF80520019900F000
:1005700099F800F007FB002801D0FFE7FFE702B081
:1005800080BD000080B582B00820012100F0E4F9B0
:1005900010208DF80700E020ADF8040002208DF84F
:1005A000060040F60040C4F2010001A900F0D8F8AE
:1005B00002B080BD80B582B00420012100F0CCF9EA
:1005C00048208DF8070010208DF807000720ADF8AF
:1005D000040002208DF8060040F60000C4F201007D
:1005E00001A900F0BDF802B080BD000080B584B064
:1005F00001468DF80E009DF80E0002460528009277
:100600003BD80099DFE801F0030C151E273040F6B7
:100610000000C4F2010002900120ADF806002DE0B8
:1006200040F60000C4F2010002900220ADF806007E
:1006300024E040F60000C4F2010002900420ADF86E
:1006400006001BE040F60040C4F2010002902020AA
:10065000ADF8060012E040F60040C4F2010002903E
:100660004020ADF8060009E040F60040C4F2010069
:1006700002908020ADF8060000E0FFE70298BDF888
:10068000061000F035F9002804D1FFE700208DF8AE
:100690000F0003E001208DF80F00FFE79DF80F0029
:1006A00004B080BD80B584B00A4603468DF80F00C3
:1006B0008DF80E109DF80F000146052800913BD8DB
:1006C0000099DFE801F0030C151E273040F600000A
:1006D000C4F2010002900120ADF806002DE040F6C2
:1006E0000000C4F2010002900220ADF8060024E0F0
:1006F00040F60000C4F2010002900420ADF80600AC
:100700001BE040F60040C4F2010002902020ADF84A
:10071000060012E040F60040C4F2010002904020C2
:10072000ADF8060009E040F60040C4F20100029076
:100730008020ADF8060000E0FFE79DF80E000028DD
:1007400006D1FFE70298BDF8061000F0EDF805E0CD
:100750000298BDF8061000F0F3F8FFE704B080BD82
:1007600088B00790069100200590049003900290B5
:10077000019000900698C07800F00F000590069850
:10078000C078C006002806D5FFE70698807805994E
:1007900008430590FFE70698007800284FD0FFE750
:1007A00007980068019000200390FFE7039807284E
:1007B00041D8FFE70398012101FA00F00290069862
:1007C00000880299084004900498029988422DD12B
:1007D000FFE703988000029002980F2101FA00F0D1
:1007E00000900098019921EA000001900598029973
:1007F00088400199084301900698C078282807D1BD
:10080000FFE70398012101FA00F0079948610CE025
:100810000698C078482807D1FFE70398012101FA1C
:1008200000F007990861FFE7FFE7FFE7FFE703989C
:1008300001300390BAE7019807990860FFE706982E
:100840000088B0F5807F51DBFFE707984068019092
:1008500000200390FFE70398072843D8FFE7039899
:100860000830012101FA00F00290069800880299F0
:10087000084004900498029988422ED1FFE703981B
:100880008000029002980F2101FA00F00090009879
:10089000019921EA00000190059802998840019988
:1008A000084301900698C078282808D1FFE70398EC
:1008B0000830012101FA00F007994861FFE7069826
:1008C000C078482808D1FFE703980830012101FAD1
:1008D00000F007990861FFE7FFE7FFE703980130A1
:1008E0000390B8E7019807994860FFE708B07047A0
:1008F00082B00A460190ADF8021000208DF8010088
:1009000001988068BDF80210084204D0FFE701207A
:100910008DF8010003E000208DF80100FFE79DF84D
:10092000010002B07047000082B00A460190ADF8A5
:100930000210BDF802000199486102B07047000042
:1009400082B00A460190ADF80210BDF8020001998C
:10095000086102B07047000082B00A4601908DF82D
:1009600003109DF80300002809D0FFE7019841F229
:100970001801C4F202010A681043086009E00198F6
:1009800041F21801C4F202010A6822EA000008607C
:10099000FFE702B07047000080B500F001F880BDAD
:1009A00083B000200290019041F20000C4F20200E6
:1009B000016841F480310160FFE741F20000C4F2B8
:1009C0000200006800F400300190029801300290AB
:1009D000FFE7019800210028009107D1FFE7029866
:1009E000B0F5A06018BF01200090FFE70098C00795
:1009F0000028E2D1FFE741F20000C4F202000068E3
:100A00008003002803D5FFE70120019002E00020C9
:100A10000190FFE70198012850D1FFE742F2000062
:100A2000C4F20200016841F010010160016821F088
:100A300007010160016841F00201016041F2040018
:100A4000C4F202000168016001680160016841F4BC
:100A500080610160016821F47C110160016841F44A
:100A6000E811016041F20000C4F20200016841F0A7
:100A700080710160FFE741F20000C4F202000068EB
:100A80008001002801D4FFE7F5E741F20400C4F239
:100A90000200016821F003010160016841F00201D8
:100AA0000160FFE741F20400C4F20200006800F0B8
:100AB0000C00082801D0FFE7F4E700E0FFE703B0EF
:100AC0007047000080B541F20000C4F202000168E6
:100AD00041F00101016041F20401C4F202010A681F
:100AE0000023CFF6FF031A400A6002684FF6FF7337
:100AF000CFF6F6631A400260026822F48022026098
:100B0000086820F4FE00086041F20800C4F2020008
:100B10004FF41F010160FFF73FFF4EF60850CEF281
:100B200000004FF00061016080BD000083B00290C2
:100B300000200190FFE701980299884212D2FFE756
:100B400000200090FFE70098C0087C2805D8FFE748
:100B5000FFE7009801300090F5E7FFE701980130CA
:100B60000190E8E703B0704780B582B000200190A3
:100B7000FFF720FDFFF706FDFFE700F003F8009008
:100B8000FBE7000080B582B00020FFF72FFD8DF855
:100B900006000120FFF72AFD8DF805000220FFF76F
:100BA00025FD8DF804009DF80600002811D1FFE70F
:100BB000FFE70020FFF71AFD002801D1FFE7F8E763
:100BC0000520FFF72FFCFFF7C5FC01208DF807007B
:100BD0002EE09DF80500002811D1FFE7FFE7012076
:100BE000FFF704FD002801D1FFE7F8E70520FFF734
:100BF0005DFCFFF7AFFC02208DF8070018E09DF8C0
:100C0000040000280ED1FFE7FFE70220FFF7EEFC0B
:100C1000002801D1FFE7F8E7FFF79CFC04208DF8DE
:100C2000070005E0FFE7FFE700208DF80700FFE77A
:100C30009DF8070002B080BD480C000800000020AD
:080C4000600600002801000815
:04000005080000ED02
:00000001FF
