:020000040800F2
:10000000680600206D0100087501000877010008EE
:10001000790100087B0100087D0100080000000054
:100020000000000000000000000000007F01000848
:10003000810100080000000083010008850100081C
:100040008701000887010008870100088701000870
:100050008701000887010008870100088701000860
:100060008701000887010008870100088701000850
:100070008701000887010008870100088701000840
:100080008701000887010008870100088701000830
:100090008701000887010008870100088701000820
:1000A0008701000887010008870100088701000810
:1000B0002105000887010008870100088701000862
:1000C00087010008870100088701000887010008F0
:1000D00087010008870100088701000887010008E0
:1000E00087010008870100088701000800F002F876
:1000F00000F02CF80AA090E8000C82448344AAF196
:100100000107DA4501D100F021F8AFF2090EBAE893
:100110000F0013F0010F18BFFB1A43F0010318473B
:100120000806000018060000002300240025002611
:10013000103A28BF78C1FBD8520728BF30C148BF4A
:100140000B6070471FB51FBD10B510BD00F031F832
:100150001146FFF7F7FF00F093FA00F04FF803B4F1
:10016000FFF7F2FF03BC00F057F800000948804792
:1001700009480047FEE7FEE7FEE7FEE7FEE7FEE789
:10018000FEE7FEE7FEE7FEE704480549054A064BA1
:100190007047000081040008ED000008680000209E
:1001A000680600206802002068020020704770473F
:1001B0007047754600F02CF8AE4605006946534678
:1001C00020F00700854618B020B5FFF7DDFFBDE839
:1001D00020404FF000064FF000074FF000084FF0AE
:1001E000000BAC46ACE8C009ACE8C009ACE8C009FB
:1001F000ACE8C00921F007018D46704710B50446F0
:10020000AFF300802046BDE81040FFF7A8BF000014
:10021000004870470000002001491820ABBEFEE7EF
:1002200026000200704700002DE9F041CA7802F074
:100230000F0CD30644BF8B784CEA030C09880B06DD
:1002400021D0056800234FF001084FF00F0E002663
:1002500008E000BF282A08BF47610136082E03F1D5
:1002600004030FD008FA06F70F42F6D00EFA03F493
:1002700025EA04040CFA03F5482A45EA0405E9D105
:100280000761EAE70560B1F5807F38BFBDE8F0811E
:10029000446800234FF4807E4FF00F08002607E0EB
:1002A000282A08BF47610136082E03F1040310D045
:1002B0000EFA06F707EA0105BD42F4D108FA03F584
:1002C000AC430CFA03F5482A44EA0504E8D1076177
:1002D000E9E74460BDE8F08140F60C40C4F201005B
:1002E000016881F0200101607047000040F60C4079
:1002F000C4F20100016881F0400101607047000014
:1003000040F60C40C4F20100016881F080010160F8
:100310007047000041F20C00C4F20100016881F452
:10032000005101607047000010B5C17800294EF2FD
:100330000011CEF200011AD04EF60C52CEF200029D
:100340001268072323EA12220F23C2F1040C23FAB6
:1003500002F24378847890F800E003FA0CF322402C
:100360001A43120101EB0E0383F8002300E08031F1
:100370000078012300F01F0203FA02F2C0F34210DA
:1003800041F8202010BD0000002941F21C01C4F2F8
:1003900002010A680CBF22EA00001043086070479F
:1003A000002941F21801C4F202010A680CBF22EAD6
:1003B000000010430860704780B500F001F880BD70
:1003C00082B041F204000021C4F2020001910091C8
:1003D00050F8041C41F4803140F8041C50F8041C0F
:1003E00001F400310091019901310191009919B98D
:1003F0000199B1F5A06FF1D150F8041C890354BFE5
:100400000021012100910099012936D142F2000119
:10041000C4F202010A6842F010020A600A6822F07F
:1004200007020A600A6842F002020A60016801607D
:1004300001680160016841F480610160016821F494
:100440007C110160016841F4E811016050F8041C5E
:1004500041F0807140F8041C50F8041C8901FBD560
:10046000016821F003010160016841F002010160AF
:10047000016801F00C010829FAD102B070470000B0
:1004800080B541F20000C4F202000168002241F090
:10049000010101604168CFF6FF021140416001682F
:1004A0004FF6FF72CFF6F66211400160016821F449
:1004B00080210160416821F4FE0141604FF41F0179
:1004C0008160FFF779FF4EF60850CEF200004FF042
:1004D0000061016080BD000080B584B00120012171
:1004E000FFF752FF40F60F6001901320029001A920
:1004F0004FF0804000F04AF84FF080400121012287
:1005000000F03CF84FF08040012100F023F81C205F
:10051000C0F2001000906846FFF706FF04B080BDEF
:1005200080B54FF08040012100F01EF8002808BF80
:1005300080BD40F26000C2F200000168013101603C
:100540004FF08040012100F001F880BDC9430182D5
:10055000704700000288002942F0010308BF22F022
:100560000103038070470000028A80890A4018BF97
:100570000122084018BF012010407047002A8289DC
:100580000CBF22EA010111438181704740F6FF331D
:10059000B0F800C0C4F2000398420FDCB0F1804F05
:1005A0001ED040F20043C4F20003984218D040F637
:1005B0000003C4F20003984212D016E040F6004354
:1005C000C4F2000398420BD043F20043C4F201038B
:1005D000984205D042F60043C4F20103984204D188
:1005E0004B882CF0700243EA020C41F2004240F4C6
:1005F0008063C4F20002934204D0CA882CF4407392
:1006000042EA030CA0F800C08A888285A0F18042EB
:10061000A2F596320B884FEAB222072A038507D843
:10062000012303FA02F212F0E50F1CBF097A0186DA
:100630000121818270470000B0B582B008200121FD
:10064000FFF7AEFEE02040F60044C1F20200C4F223
:10065000010401AD019020462946FFF7E5FD102079
:100660000121FFF79DFE42F20000C1F2020001905D
:1006700004F580602946FFF7D7FD02B0B0BD000049
:100680008CB040F2D920C0F60000099000F036F896
:100690004FF47A710B9140F2ED21C0F60001CDE9E3
:1006A00006104FF4FA61089140F20131C0F60001E2
:1006B000CDE9031040F6B831059140F21531C0F68E
:1006C00000010A90CDE900104FF47A600290FFF724
:1006D00003FFFFF7B1FF09AC06AD03AE6F4600BFE5
:1006E000204600F011F8284600F00EF8304600F0E1
:1006F0000BF8384600F008F8F2E7000040F260001E
:10070000C2F200000068704710B50446FFF7F6FF1C
:10071000D4E90112401A904238BF10BD20688047CA
:10072000FFF7ECFF606010BD3807000800000020F4
:08073000680600002801000822
:04000005080000ED02
:00000001FF
